000000000POLPOL0010003                    *FZAAG                       02017-05-04CHR2017-05-07    +00000 +00000   2017-05-042017-05-04                  X          +000000+00000 
000000000POLPOL0010005                    *FZAAG                       02017-05-04CHR2017-05-18    +00000 +00000 AB2017-05-042017-05-04                  X          +000000+00000 
000000000POLPOL0010008                    *FZAAG                       02017-05-02CHR2017-05-03    +00000 +00000   2017-05-022017-05-02                  X          +000000+00000 
000000000POLPOL0010008                    *FZAAG                       02017-05-04CHR2017-05-15    +00000 +00000 S 2017-05-022017-05-02                  X          +000000+00000 
000000000POLPOL0010015                    *FZAAG                       02017-05-02CHR2017-05-03    +00000 +00000   2017-05-022017-05-02                  X          +000000+00000 
000000000POLPOL0010015                    *FZAAG                       02017-05-04CHR2017-05-25    +00000 +00000 S 2017-05-022017-05-02                  X          +000000+00000 
000000000POLPOL0010015                    *FZAAG                       02017-05-26CHR2017-05-28    +00000 +00000   2017-05-022017-05-02                  X          +000000+00000 
000000000POLPOL0010054                    *FZAAG                       02017-05-04ODR2017-05-05    +00000 +00000   2017-05-042017-05-04                  X          +000000+00000 
000000000POLPOL0010089                    *FZAAG                       02017-04-21CHR2017-05-02    +00000 +00000 S 2017-05-022017-05-02                  X          +000000+00000 
000000000POLPOL0010089                    *FZAAG                       02017-05-03CHR2017-06-21    +00000 +00000 C 2017-05-022017-05-02                  X          +000000+00000 
000000000POLPOL0010002                    *FZAAG                       02017-05-02CHR2017-05-26    +00000 +00000   2017-05-082017-05-08                  X          +000000+00000 
000000000POLPOL0010091                    *FZAAG                       02017-05-01CHR2017-05-02    +00000 +00000   2017-05-022017-05-02                  X          +000000+00000 
